:100000000C9446000C9465000C9465000C946500FB
:100010000C9465000C9465000C9465000C946500CC
:100020000C9465000C9465000C9465000C946500BC
:100030000C9465000C94E3000C9465000C9465002E
:100040000C9465000C9465000C9465000C9465009C
:100050000C9465000C9465000C9465000C9465008C
:100060000C9465000C9465000C9465000C9465007C
:100070000C9465000C9465000C9465000C9465006C
:100080000C9465000C9465000C94650011241FBE4F
:10009000CFEFD0E4DEBFCDBF11E0A0E0B1E0E6EBF2
:1000A000FAE000E00BBF02C007900D92A233B10747
:1000B000D9F721E0A2E3B1E001C01D92AB33B20752
:1000C000E1F70E945F030C9459050C940000CF9354
:1000D000DF9300D000D0CDB7DEB769837A838B83FE
:1000E0009C8389819A81AB81BC818093000190932C
:1000F0000101A0930201B09303018091000190914E
:100100000101A0910201B09103018093330190930A
:100110003401A0933501B093360100000F900F9089
:100120000F900F90DF91CF910895CF93DF93CDB7CC
:10013000DEB781E890E02BE0FC01208388E890E0C6
:100140002DE730E0FC01318320838FE690E022E050
:10015000FC01208384E890E0FC01118210828091F0
:10016000000190910101A0910201B09103018093DF
:10017000330190933401A0933501B09336018FE59C
:1001800090E02FE530E0F90120812068FC01208318
:100190000000DF91CF910895CF93DF93CDB7DEB705
:1001A00081E890E0FC0110820000DF91CF9108957A
:1001B000CF93DF93CDB7DEB781E0809332010000AB
:1001C000DF91CF9108951F920F9200905F000F92E0
:1001D000112400905B000F922F933F934F935F93F6
:1001E0006F937F938F939F93AF93BF93EF93FF93FF
:1001F000CF93DF93CDB7DEB7809133019091340177
:10020000A0913501B09136010197A109B109809300
:10021000330190933401A0933501B093360180915E
:10022000330190913401A0913501B0913601892BB1
:100230008A2B8B2B91F40E94D80080910001909121
:100240000101A0910201B0910301809333019093C9
:100250003401A0933501B09336010000DF91CF91B6
:10026000FF91EF91BF91AF919F918F917F916F918E
:100270005F914F913F912F910F9000925B000F90F3
:1002800000925F000F901F901895CF93DF9300D0DE
:100290001F92CDB7DEB789837B836A8389818A30D9
:1002A00031F48A819B81BC018DE00E94450180EC84
:1002B00090E0FC018081882F90E080729927892B43
:1002C000B1F386EC90E02981FC01208380E090E08E
:1002D0000F900F900F90DF91CF9108950F931F9380
:1002E000CF93DF9300D000D0CDB7DEB769837A8398
:1002F0008B839C838091370190913801A0913901C3
:10030000B0913A019C01AD0169817A818B819C8118
:100310000E94C503882309F477C020E030E0A901DA
:1003200069817A818B819C810E94C503882351F465
:1003300081E990E021E930E0F90120812870FC0199
:10034000208309C081E990E021E930E0F9012081B2
:100350002360FC01208328E539E344E75FE36981FA
:100360007A818B819C810E94C503882344F488E9AB
:1003700090E02FEF3FEFFC013183208334C020E079
:1003800034E244EF56E469817A818B819C810E943A
:10039000E704181634F488E990E0FC011182108219
:1003A00022C008E910E020E030E040E053E4698139
:1003B0007A818B819C810E94EC04DC01CB019C0141
:1003C000AD0160E074E284EF9AE40E94CA03DC01AC
:1003D000CB01BC01CD010E943C04DC01CB010197A3
:1003E000F8019183808384E990E0FC0111821082FE
:1003F00089819A81AB81BC818093370190933801C8
:10040000A0933901B0933A0100000F900F900F9024
:100410000F90DF91CF911F910F910895CF93DF93AC
:10042000CDB7DEB780E990E020E4FC01208381E9CC
:1004300090E02BE0FC01208360E070E0CB010E94A3
:100440006E010000DF91CF910895CF93DF93CDB778
:10045000DEB780E990E0FC01108281E990E0FC01C8
:1004600010820000DF91CF9108952F923F92CF9399
:10047000DF9300D0CDB7DEB7C1013A822982FC01FB
:1004800026A137A122303105F1F02330310540F4A7
:100490002115310591F02130310509F451C071C0A9
:1004A0002430310509F45EC02430310508F442C01F
:1004B0002530310509F45CC064C022E030E0FC0165
:1004C00037A326A35EC0FC0125A1222371F0FC0105
:1004D00024A1222351F4FC0123A1222331F423E09F
:1004E00030E0FC0137A326A324C0FC0125A1222370
:1004F00071F4FC0124A1222351F4FC0123A1222345
:1005000031F024E030E0FC0137A326A312C0FC0147
:1005100025A1222399F5FC0124A1222379F1FC01D4
:1005200023A1222359F525E030E0FC0137A326A3BF
:1005300025C024C021E030E0FC0137A326A321C060
:10054000FC0125A12223E1F4FC0124A12223C1F412
:10055000FC0123A12223A1F422E030E0FC0137A317
:1005600026A30EC021E030E0FC0137A326A309C07A
:1005700021E030E0FC0137A326A303C0000001C046
:100580000000FC0126A137A12230310509F486C004
:100590002330310508F484C02430310541F0243083
:1005A000310508F44CC02530310529F180C0FC012B
:1005B00022A1273028F4FC0122A12F5FFC0122A3F5
:1005C000FC0120A131A12130310509F06BC0FC01F3
:1005D00022A1222F30E0220F331F220F331F820F60
:1005E000931FFC0180819181A281B381BC01CD0167
:1005F0000E946E0157C0FC0122A1222329F0FC01B8
:1006000022A12150FC0122A3FC0120A131A1213013
:10061000310509F049C0FC0122A1222F30E0220F50
:10062000331F220F331F820F931FFC0180819181A2
:10063000A281B381BC01CD010E946E0135C0FC01D5
:1006400020A131A1232BC9F421E030E0FC0131A32A
:1006500020A3FC0122A1222F30E0220F331F220F02
:10066000331F820F931FFC0180819181A281B3818E
:10067000BC01CD010E946E0119C0FC0120A131A175
:100680002130310599F420E030E0FC0131A320A3B2
:1006900060E070E0CB010E946E0108C0000007C05E
:1006A000000005C0000003C0000001C00000000001
:1006B0000F900F90DF91CF913F902F9008952F9240
:1006C0003F92CF93DF93CDB7DEB7C854D1090FB6B1
:1006D000F894DEBF0FBECDBF81E290E0FC01108236
:1006E00082E290E02FEFFC01208384E290E02FEF84
:1006F000FC01208385E290E0FC01108280E08BA366
:1007000080E090E09AA389A320E2E2E1F1E0CE014B
:100710000196DC0101900D922A95E1F70E94950067
:1007200062E370E080E090E00E94670080E090E08B
:1007300098A78FA30E940E0280E290E0FC018081C6
:10074000882F90E08170992721E0892B09F020E023
:10075000822F8EA380E290E0FC01808180958270E0
:100760008DA380E290E0FC018081809584708CA351
:10077000CE0101961C010E943502000080913201D9
:100780008823E1F310923201D7CF0E94720408F45B
:1007900081E008950E94DE030C94AD040E94A6043B
:1007A00058F00E949F0440F029F45F3F29F00C9418
:1007B000960451110C94E1040C949C040E94BE0414
:1007C00068F39923B1F3552391F3951B550BBB2780
:1007D000AA2762177307840738F09F5F5F4F220FC5
:1007E000331F441FAA1FA9F335D00E2E3AF0E0E8BC
:1007F00032D091505040E695001CCAF72BD0FE2F06
:1008000029D0660F771F881FBB1F26173707480799
:10081000AB07B0E809F0BB0B802DBF01FF27935851
:100820005F4F3AF09E3F510578F00C9496040C947B
:10083000E1045F3FE4F3983ED4F38695779567959E
:10084000B795F7959F5FC9F7880F911D9695879586
:1008500097F90895E1E0660F771F881FBB1F6217A5
:1008600073078407BA0720F0621B730B840BBA0B63
:10087000EE1F88F7E09508950E9443046894B11133
:100880000C94E10408950E94C60488F09F5798F0E4
:10089000B92F9927B751B0F0E1F0660F771F881F85
:1008A000991F1AF0BA95C9F714C0B13091F00E949F
:1008B000E004B1E008950C94E004672F782F8827B6
:1008C000B85F39F0B93FCCF3869577956795B395C6
:1008D000D9F73EF490958095709561957F4F8F4F35
:1008E0009F4F0895990F0008550FAA0BE0E8FEEFFF
:1008F00016161706E807F907C0F012161306E407E4
:10090000F50798F0621B730B840B950B39F40A26DC
:1009100061F0232B242B252B21F408950A2609F4BA
:10092000A140A6958FEF811D811D089597F99F67BE
:1009300080E870E060E008959FEF80EC0895002467
:100940000A941616170618060906089500240A9434
:1009500012161306140605060895092E0394000CBA
:1009600011F4882352F0BB0F40F4BF2B11F460FF49
:1009700004C06F5F7F4F8F4F9F4F089557FD905872
:10098000440F551F59F05F3F71F04795880F97FB53
:10099000991F61F09F3F79F087950895121613060D
:1009A0001406551FF2CF4695F1DF08C0161617063C
:1009B0001806991FF1CF8695710561050894089571
:1009C000E894BB2766277727CB0197F908950E9403
:1009D000720408F48FEF08950E94FF040C94AD0494
:1009E0000E949F0438F00E94A60420F0952311F085
:1009F0000C9496040C949C0411240C94E1040E9421
:100A0000BE0470F3959FC1F3950F50E0551F629F90
:100A1000F001729FBB27F00DB11D639FAA27F00D57
:100A2000B11DAA1F649F6627B00DA11D661F829F7E
:100A30002227B00DA11D621F739FB00DA11D621F63
:100A4000839FA00D611D221F749F3327A00D611D80
:100A5000231F849F600D211D822F762F6A2F112462
:100A60009F5750409AF0F1F088234AF0EE0FFF1F95
:100A7000BB1F661F771F881F91505040A9F79E3FEC
:100A8000510580F00C9496040C94E1045F3FE4F36C
:100A9000983ED4F3869577956795B795F795E79542
:100AA0009F5FC1F7FE2B880F911D9695879597F94B
:060AB0000895F894FFCF49
:100AB60001000000000000020000000045010000E7
:100AC6000000A4D082437BD49243A4D0A443719D5A
:100AD600AE430000C4430000DC43A4F0F64300D05C
:020AE6000244C8
:00000001FF
